:020000040800F2
:1000000010820020CD0100089D1E00088911000803
:10001000991E000831050008951F00080000000027
:10002000000000000000000000000000891F000820
:100030003505000800000000A11E00088D1F000803
:10004000E7010008E7010008E7010008E7010008F0
:10005000E7010008E7010008E7010008E7010008E0
:10006000E7010008E7010008E7010008E7010008D0
:10007000E7010008E7010008E7010008E7010008C0
:10008000E7010008E7010008E7010008E7010008B0
:10009000E7010008E7010008E7010008E7010008A0
:1000A000E7010008E7010008E7010008E701000890
:1000B000E7010008E7010008E7010008E701000880
:1000C000E7010008E7010008E7010008E701000870
:1000D000E7010008E7010008E7010008E701000860
:1000E000E7010008E7010008E7010008E701000850
:1000F000E7010008E7010008E7010008E701000840
:10010000E7010008E7010008E7010008E70100082F
:10011000E7010008E7010008E7010008E70100081F
:10012000E7010008E7010008E7010008E70100080F
:1001300000F002F800F03AF80AA090E8000C8244BF
:100140008344AAF10107DA4501D100F02FF8AFF29C
:10015000090EBAE80F0013F0010F18BFFB1A43F0A5
:1001600001031847405A0300605A0300103A24BFA5
:1001700078C878C1FAD8520724BF30C830C144BF0C
:1001800004680C607047000000230024002500264E
:10019000103A28BF78C1FBD8520728BF30C148BFEA
:1001A0000B6070471FB51FBD10B510BD00F08DF975
:1001B0001146FFF7F7FF2AF0BDFA00F0ABF903B4E0
:1001C000FFF7F2FF03BC00F079F90000094880470F
:1001D00009480047FEE7FEE7FEE7FEE7FEE7FEE729
:1001E000FEE7FEE7FEE7FEE704480549054A064B41
:1001F00070470000911F000831010008106E0020B8
:1002000010820020107200201072002053EA020CAD
:1002100000F069802DE9F04B4FF00006002B1FBF66
:10022000B3FA83F503FA05F424FA05F65E4012BF2B
:100230001643B2FA82F502FA05F4C5F120051EBF95
:1002400022FA05FC44EA0C04203556EA044C4FEA35
:10025000144418BF641C4FF000084FF0000990428E
:1002600071EB030C39D3002919BFB1FA81F701FAF8
:1002700007F6B0FA80F700FA07F6C7F120071EBFAD
:1002800020FA07FC46EA0C062037B6FBF4FCA7EB85
:100290000507103F07F01F0BCBF120062CFA06F6DE
:1002A0000CFA0BFB44BFB3460026202FA4BF5E46CA
:1002B0004FF0000B5BEA060C08BF4FF0010B19EB87
:1002C0000B0948EB0608ABFB027C06FB02CC0BFBE0
:1002D00003CCC01B71EB0C01C1E70B460246414643
:1002E0004846BDE8F08B13B5084318BF4FF0FF3008
:1002F0000146AFF30080BDE81C40704740EA0103AF
:10030000024630B59B0710D14FF0013400E008C21F
:1003100008C91D1B9D4315EAC41FF8D013F0FF0147
:1003200002F8011B0DD01B0AF8E711F8013B002B66
:1003300002F8013B05D011F8013B002B02F8013B0C
:10034000F3D130BD10B5431C02E010F8011B71B1B0
:100350008107FAD14FF0013202C88C1A8C4314EA9B
:10036000C211F9D0C01A0A0603D0C01E10BDC01AAF
:1003700010BD0A0401D0801E10BD0902FCD0401E31
:1003800010BD02F0FF0343EA032242EA024200F0FA
:100390000AB802F0FF0343EA032242EA024200F0F5
:1003A00024B84FF000020429C0F0128010F0030CB2
:1003B00000F01B80CCF1040CBCF1020F18BF00F858
:1003C000012BA8BF20F8022BA1EB0C0100F00DB807
:1003D0005FEAC17C24BF00F8012B00F8012B48BF65
:1003E00000F8012B70474FF0000200B51346944609
:1003F0009646203922BFA0E80C50A0E80C50B1F17D
:100400002001BFF4F7AF090728BFA0E80C5048BF90
:100410000CC05DF804EB890028BF40F8042B08BF2E
:10042000704748BF20F8022B11F0804F18BF00F82A
:10043000012B70474FF0013C50F8042B51F8043B5E
:100440009A4221D1A2EB0C03934313EACC1317D1A8
:1004500050F8042B51F8043B9A4215D1A2EB0C033F
:10046000934313EACC130BD150F8042B51F8043BFF
:100470009A4209D1A2EB0C03934313EACC13DBD0CD
:100480004FF00000704700BFD01A01BAB1FA81F1F5
:1004900001F0180122FA01F0CB40DBB2C0B2C01A61
:1004A000C1F120012CFA01F3D11A914311EAC311D1
:1004B000E6D1704770477047704700000149182027
:1004C000ABBEFEE7260002007047754600F02CF830
:1004D000AE4605006946534620F00700854618B031
:1004E00020B5FFF781FEBDE820404FF000064FF039
:1004F00000074FF000084FF0000BAC46ACE8C00915
:10050000ACE8C009ACE8C009ACE8C00921F00701BB
:100510008D46704710B50446AFF300802046BDE815
:100520001040FFF74CBE000000487047A0000020BC
:10053000FEE7000070470000B0B5044600F036F951
:10054000054640F20000C2F200000078611C18BFAE
:10055000044400BF00F02AF9401BA042FAD3B0BD0A
:100560002DE9F04F83B041F60043C4F201030E6859
:1005700006229842019008BF0522002E009200F04A
:100580000B81019840F20C45A0F18043A3F5843320
:100590004FEAB32740F200404FF6FF73C4F2010563
:1005A000C4F20100009A4FF0000E4FF0010CC1F2AE
:1005B00010034FF0000A4FF0000B4FF00F08052F0B
:1005C00038BF3A46009208E00E680AF1010A36FA8E
:1005D0000AF20EF1040E00F0DF800CFA0AF916EAB6
:1005E000090FF1D04E689E4230DC122E74D80FF203
:1005F000080707EB8607BF4600F04EB800F022B8A8
:1006000000F05AB800F05CB800F066B800F064B8CA
:1006100000F062B800F060B800F05EB800F05CB8BE
:1006200000F05AB800F058B800F056B800F054B8CE
:1006300000F052B800F050B800F04EB800F044B8E6
:1006400000F046B8D1F80CB046E000BF4FF6FF729C
:10065000C1F2210296420FDC0022C1F21102964241
:100660001AD00022C1F21202964215D00022C1F225
:100670002102964210D02FE00022C1F222029642BF
:100680000AD00022C1F23102964205D00022C1F206
:100690003202964220D100BF8E684EB1012E019ADF
:1006A00014BFC2F81490C2F810904FF0080B13E07A
:1006B0004FF0040B10E000BFCF6807F1080B0BE010
:1006C0004FF0000B08E000BFCF6807F1040B03E018
:1006D000CF6807F10C0B00BF7446BAF1080F28BFB2
:1006E000203C019F28BF04373E6808FA04F226EA3E
:1006F00002020BFA04F632433A60CA79D2067FF559
:1007000063AF41F21807C4F202073A684FF6084C8B
:1007100042F001023A603A68CFF6FF7C02F0010233
:100720000292029A2AF00302024452F80C700EF070
:100730000C0608FA06F4A743009C04FA06F63743B1
:1007400042F80C70D1F804C05FEACC32026854BFA2
:1007500022EA090642EA09065FEA8C32066042682C
:1007600054BF22EA090642EA09065FEACC22466043
:10077000826854BF22EA090642EA09065FEA8C222F
:1007800086604FF0010C2A6854BF22EA090642EA4B
:1007900009062E6018E700BF03B0BDE8F08F000027
:1007A000002A08BF090401617047000046F60C608A
:1007B000C2F200000068704740F2000046F60C618B
:1007C000C2F20000C2F2000100780A68104408601A
:1007D0007047000080B542F20000C4F202000168D8
:1007E00041F010010160032000F07AF80F2000F0C2
:1007F00005F800F027F8002080BD000070B540F239
:100800000006C2F2000640F258013278C2F200013E
:100810004FF47A730968B3FBF2F20446B1FBF2F1CC
:10082000084600F09BFC0F2C4FF0010508D838B9A2
:100830004FF0FF3021460022002500F025F87460BB
:10084000284670BD82B041F21800C4F2020001686F
:10085000022241F001010160016801F001010191F2
:100860000199416841F080514160406800F080503A
:10087000009000980420C4F20100016862F31A613C
:10088000016002B07047000010B54EF60C5CCEF26D
:10089000000CDCF80030C3F3022E8EF00704042CA9
:1008A00028BF0424BEF103034FF0FF3E0EFA04F408
:1008B00038BF0023A14399400EFA03F39A43114332
:1008C00000F00F02043A624409010C3200F1604367
:1008D000B0F1FF3FC8BF03F56442117010BD0000C6
:1008E0004EF60C51CEF200010A684FF6FF031A4093
:1008F00060F30A2242F0806040F0FD7008607047AB
:100900002DE9F04381B0002800F0858042F2000814
:10091000C4F202080446D8F800000D4600F00700B3
:1009200088420CD2D8F8000020F007002843C8F80D
:100930000000D8F8000000F00700A8426BD1206842
:1009400041F204098107C4F2020917D5410705D510
:10095000D9F8001041F4E061C9F80010010705D58D
:10096000D9F8001041F46051C9F80010D9F800100E
:10097000A26821F0F0011143C9F80010C00741D16D
:10098000D8F8000000F00700A8420CD9D8F8000001
:1009900020F007002843C8F80000D8F8000000F055
:1009A0000700A84237D12068410707D5D9F80010C1
:1009B000E26821F4E0611143C9F80010000708D58E
:1009C000D9F80000216920F4605040EAC100C9F85C
:1009D0000000D9F8002002F00C00082841F20020A5
:1009E000C0F27A0050D141F2E063C2F38341C0F615
:1009F0000303595CD2033BD440F60010C0F23D0023
:100A0000484341E0606802280AD001282AD159F8F9
:100A1000041C890308D4012001B0BDE8F08300BFA5
:100A200059F8041C8901F6D5D9F8001021F003010A
:100A30000843C9F80000FFF7B9FE064641F28837BF
:100A4000D9F80000616800F00C00B0EB810F97D07E
:100A5000FFF7ACFE801BB842F2D9032001B0BDE81D
:100A6000F08300BF59F8041C8907D4D5DCE700BF28
:100A7000D9F8002041F2DA43C2F34042C0F6030342
:100A80009A5C4843B0FBF2F0D9F8001041F22052D2
:100A9000C1F30311C0F60302515C40F2580220FA80
:100AA00001F140F20400C2F200000068C2F200024C
:100AB0001160FFF7A3FE002001B0BDE8F083000045
:100AC0002DE9F04182B0002868D00446007841F258
:100AD0000006C007C4F2020625D0706800F00C00C2
:100AE00004281BD0706800F00C00082802D1706840
:100AF000C00313D46068002800F06881B0F5A02F0F
:100B000000F07C81B0F5803F00F07C81306820F4FB
:100B100080303060306820F4802076E130688003D7
:100B200001D56068D0B32078800718D5706810F0C0
:100B30000C0F07D0706800F00C0008286ED17068A8
:100B4000C0036BD43068800702D52069012825D105
:100B50003068616920F0F80040EAC1003060207818
:100B600000071FD42078400732D4E56995B170683A
:100B700000F00C00082840F08F80012D0ED0706826
:100B8000216A00F480328A4208D1616A00F4701050
:100B9000884203D1002002B0BDE8F081012002B0FC
:100BA000BDE8F081A069002862D00020C4F2422094
:100BB0000121C0F88014FFF7F9FD0546706A80072F
:100BC00000F18C80FFF7F2FD401B0228F6D92AE1E4
:100BD000F06910F0805808D1F06940F08050F06161
:100BE000F06900F080500090009847F20007C4F2CE
:100BF00000073868C00529D4386840F48070386030
:100C0000FFF7D4FD054600BF3868C0051ED4FFF7C6
:100C1000CDFD401B6428F7D905E100BF20690028FD
:100C200040F20000C4F2422000F082800121016005
:100C3000FFF7BCFD054600BF306880073FF588AF71
:100C4000FFF7B4FD401B0228F6D9ECE0E06800286D
:100C500000F08080052800F09780012800F098803F
:100C6000306A20F001003062306A20F0040092E027
:100C70000020C4F242200021C0F88014FFF796FD46
:100C8000054600BF706A80077FF56CAFFFF78EFDE9
:100C9000401B0228F6D9C6E00027C4F242270020F4
:100CA0003866FFF783FD022D05460BD130688001C1
:100CB00040F1BE80FFF77AFD401B02284FF0030091
:100CC000F4D968E7306880017FF564AFFFF76EFD07
:100CD000401B02284FF00300F4D95CE740F25800B3
:100CE000C2F20000006844F6D351C1F26201A0FBD9
:100CF0000101480A019000BF00BF0198411E002871
:100D000001913FF42FAF00BF0198411E00280191CF
:100D10003FF428AF00BF0198411E002801913FF425
:100D200021AF00BF0198411E00280191E4D119E7CD
:100D300000210160FFF73AFD054600BF30688007DB
:100D40007FF50DAFFFF732FD401B02284FF0030087
:100D5000F4D920E7306A20F001003062306A20F0D8
:100D600004003062FFF722FD054641F2883700BFDC
:100D7000306A800720D5FFF719FD401BB8424FF0BD
:100D80000300F5D907E700BF306A40F00400306285
:100D9000306A40F001003062FFF708FD054641F27D
:100DA000883700BF306A800706D4FFF7FFFC401B7E
:100DB000B842F7D937E000BFB8F1000F7FF4D5AEE5
:100DC000F06920F08050F061CFE600BF306820F479
:100DD00080303060306820F480203060FFF7E6FC1F
:100DE000054600BF306880037FF59DAEFFF7DEFC4F
:100DF000401B64284FF00300F4D9CCE6306840F47F
:100E000080203060306840F480303060FFF7CEFCE6
:100E1000054600BF306880033FF585AEFFF7C6FC8E
:100E2000401B6428F6D9032002B0BDE8F08100BF62
:100E3000206AB0F5803F05D17168A26821F40031C5
:100E4000114371607168626A21F4741110430843A0
:100E5000706001203866FFF7A9FC04463068800105
:100E60003FF598AEFFF7A2FC001B02284FF00300ED
:100E7000F4D990E670B538B10446406A30B100202C
:100E8000206104F1140007E0012070BD6068B0F536
:100E9000827F03D004F11C00002101600026A662BD
:100EA00094F8510020B9204684F8506000F038F8DA
:100EB000022084F8510094E8071001F4827103685D
:100EC00002F4044223F040030360236911440CF44C
:100ED0000062114403F002026369114403F001024D
:100EE000A369E569114403F40072114405F0380266
:100EF000256A114405F08002A56A114305F40052E9
:100F000011430160042101EA13414160C16921F4E8
:100F10000061C1610120666584F85100304670BDF2
:100F200080B586B0014640F60000C4F201000968B1
:100F300000F5205300229942049201D006B080BDF2
:100F400041F21801C4F202010A6842F480520A60B8
:100F50000A6802F480520192019A0A6842F004027F
:100F60000A60096801F0040101910199A021029130
:100F7000022103910321059102A9FFF7F1FA06B0BE
:100F800080BD00002DE9F04381B0044690F8500088
:100F9000012803D1022001B0BDE8F0834FF0010920
:100FA0001D4616460F4684F85090FFF7FFFB94F855
:100FB0005110012972D18046002F4FF0010018BF57
:100FC000002E00F0C2800320002184F851006165EA
:100FD0002763A686E686A163A187E187A0682164CE
:100FE000B0F5004F2068616407D1016821F040012D
:100FF0000160016841F4804101600168490603D441
:10100000016841F0400101606168731EE268B1FA55
:1010100081F1B3FA83F349095B09B2F5006F41EA44
:1010200003013DD131B137F8021BC1602763E18E66
:101030000139E186E18E00296CD0691C1BD000BF0C
:101040008168890706D4FFF7B1FBA0EB0800A8422E
:1010500008D348E0216B31F8022BC2602163E08E97
:101060000138E086E08E002854D020688168890726
:10107000E9D5EFE720688168890703D4FFF796FB7D
:1010800008E000BF216B31F8022BC2602163E08EC3
:101090000138E086E08E0028ECD13BE0022054E0ED
:1010A00039B139780173206B01302063E08E01384B
:1010B000E086E08E70B3681C0BD11BE0216B0978D1
:1010C0000173206B01302063E08E0138E086E08EF2
:1010D00000B3206881688907F0D4FFF767FBA0EBB5
:1010E0000800A842F3D303202FE000BFFFF75EFB08
:1010F000E08E78B1206881688907F7D5216B09787F
:101100000173206B01302063E08E0138E086E08EB1
:101110000028EFD1204680212A46434600F0C2FE37
:1011200028B1606D40F02000606520206065A068F7
:1011300038B9002000902068C16800918068009054
:101140000098606D002818BF0120002184F851909C
:1011500084F8501001B0BDE8F0830000411E00206B
:10116000B0EB116F1CBF012070474EF21002CEF29F
:10117000000251604EF62351CEF20001F0230B70B5
:101180000721906011607047FEE70000B0B582B0A3
:10119000144602460B4600F0C1FD40F61045C4F26D
:1011A00001054FF0006028604FF480602860200A3D
:1011B0008DF8064040F22054C2F200048DF807007A
:1011C0000DF10701204601221023FFF7DBFE0DF190
:1011D0000601204601221023FFF7D4FE4FF40060E1
:1011E000286002B0B0BD00002DE9F04381B0DDF809
:1011F000209040F610481C4615460E460746C4F29D
:10120000010800F08BFD4FF00060C8F800004FF4BB
:101210008060C8F800004FEA19208DF80300E81B31
:10122000A11B0130013101FB00F7012F8DF8029065
:1012300016DB40F22054C2F200040DF103050DF15B
:10124000020600BF2046294601221023FFF79AFE1E
:101250002046314601221023FFF794FE013FF1D1D1
:101260004FF40060C8F8000001B0BDE8F083000052
:101270002DE9F04F81B040F61045C4F201054FF45E
:10128000805405202C604FF0050AFFF755F94FF008
:10129000805028600520FFF74FF94FF400690520C2
:1012A0002C60C5F80090FFF747F940F220544FF04A
:1012B00000674FF0110B4FF08060C2F200042F6006
:1012C0008DF803B02F6028600DF103012046012244
:1012D00064234FF08066FFF755FE7820C5F8009034
:1012E000FFF72AF94FF0B1080DF103012046012262
:1012F00064238DF803802F602E604FF08066FFF727
:1013000041FEC5F800908DF803A04FF4806A0DF1FE
:1013100003012046012201232F60C5F800A0FFF73A
:1013200031FE0DF10301204601226423C5F800902F
:101330008DF803B02F602E60FFF724FE7820C5F8EB
:101340000090FFF7F9F80DF1030120460122642314
:101350008DF803802F602E604FF08068FFF712FE3B
:1013600001260DF10301204601220123C5F800905A
:101370008DF803602F60C5F800A0FFF703FE2C2056
:10138000C5F800908DF803000DF1030120460122FD
:1013900001232F60C5F800A0FFF7F4FD4FF02D0BDF
:1013A0000DF10301204601220123C5F800908DF8BC
:1013B00003B02F60C5F800A0FFF7E4FDB220C5F828
:1013C00000908DF803000DF10301204601226423F3
:1013D0002F60C5F80080FFF7D5FD0DF10301204611
:1013E00001220123C5F800908DF803604FF0010839
:1013F0002F60C5F800A0FFF7C5FD2C20C5F80090B0
:101400008DF803000DF103012046012201232C2653
:101410002F60C5F800A0FFF7B5FD0DF103012046D0
:1014200001220123C5F800908DF803B02F60C5F8A4
:1014300000A0FFF7A7FDB320C5F800908DF80300CA
:101440004FF080602F6028600DF1030120460122DB
:101450006423FFF797FD0DF10301204601220123CC
:10146000C5F800908DF803802F60C5F800A0FFF745
:1014700089FD0DF10301204601220123C5F80090EA
:101480008DF803602C262F60C5F800A0FFF77AFDC9
:101490000DF10301204601220123C5F800908DF8CB
:1014A00003B02F60C5F800A0FFF76CFD0DF103013C
:1014B000204601220123C5F800908DF803802F609B
:1014C000C5F800A0FFF75EFD0DF1030120460122E3
:1014D0000123C5F800908DF803602F60C5F800A0C7
:1014E000FFF750FD0DF10301204601220123C5F84D
:1014F00000908DF803B02F60C5F800A0FFF742FD03
:10150000B420C5F800908DF803004FF080660DF10F
:1015100003012046012264232F602E60FFF732FD75
:101520000720C5F800908DF803000DF10301204657
:10153000012201232F60C5F800A0FFF723FDC02082
:10154000C5F800908DF803000DF10301204601223B
:1015500064232F602E604FF08066FFF713FDA220FA
:10156000C5F800908DF803000DF10301204601221B
:1015700001232F60C5F800A0FFF704FD0220C5F885
:1015800000908DF803000DF1030120460122012394
:101590002F60C5F800A0FFF7F5FC8420C5F8009087
:1015A0008DF803000DF103012046012201232F6075
:1015B000C5F800A0FFF7E6FCC120C5F800908DF843
:1015C00003000DF103012046012264232F602E60E9
:1015D0004FF08066FFF7D6FC4FF0C50B0DF103010D
:1015E000204601220123C5F800908DF803B02F603A
:1015F000C5F800A0FFF7C6FCC220C5F800908DF822
:1016000003000DF103012046012264232F602E60A8
:101610004FF08066FFF7B6FC0A20C5F800908DF801
:1016200003000DF103012046012201232F60C5F8BC
:1016300000A0FFF7A7FC0020C5F800908DF803007C
:101640000DF103012046012201232F60C5F800A0FF
:10165000FFF798FCC320C5F800908DF803000DF14A
:1016600003012046012264232F602E604FF0806624
:10167000FFF788FC4FF08A080DF103012046012294
:101680000123C5F800908DF803802F60C5F800A0F5
:10169000FFF778FC2A20C5F800908DF803000DF1C3
:1016A00003012046012201232F60C5F800A0FFF7A7
:1016B00069FCC420C5F800908DF803000DF103010A
:1016C0002046012264232F602E604FF08066FFF7D2
:1016D00059FC0DF10301204601220123C5F80090B9
:1016E0008DF803802F60C5F800A0FFF74BFCEE20BB
:1016F000C5F800908DF803000DF10301204601228A
:1017000001232F60C5F800A0FFF73CFC0DF1030199
:10171000204601226423C5F800908DF803B02F60A5
:101720002E604FF08068FFF72DFC0E20C5F800906A
:101730008DF803000DF103012046012201232F60E3
:10174000C5F800A0FFF71EFC3620C5F800908DF804
:1017500003000DF103012046012264232F60C5F828
:101760000080FFF70FFCC820C5F800908DF803003B
:101770000DF103012046012201232F60C5F800A0CE
:10178000FFF700FCE020C5F800908DF803000DF194
:1017900003012046012264232F60C5F80080FFF773
:1017A000F1FB4FF00F0B0DF1030120460122012345
:1017B000C5F800908DF803B02F60C5F800A0FFF7C2
:1017C000E1FB1A20C5F800908DF803000DF103012C
:1017D0002046012201232F60C5F800A0FFF7D2FBAD
:1017E0000DF10301204601220123C5F800908DF878
:1017F00003B02F60C5F800A0FFF7C4FB1820C5F8A0
:1018000000908DF803000DF1030120460122012311
:101810002F60C5F800A0FFF7B5FB2F20C5F800909A
:101820008DF803000DF103012046012201232F60F2
:10183000C5F800A0FFF7A6FB2820C5F800908DF89A
:1018400003000DF103012046012201232F60C5F89A
:1018500000A0FFF797FB2020C5F800908DF803004B
:101860000DF103012046012201232F60C5F800A0DD
:10187000FFF788FB2220C5F800908DF803000DF1DA
:1018800003012046012201232F60C5F800A0FFF7C5
:1018900079FB1F20C5F800908DF803000DF10301BE
:1018A0002046012201232F60C5F800A0FFF76AFB44
:1018B0001B260DF10301204601220123C5F80090EB
:1018C0008DF803602F60C5F800A0FFF75BFB2320B5
:1018D000C5F800908DF803000DF1030120460122A8
:1018E00001232F60C5F800A0FFF74CFB3720C5F897
:1018F00000908DF803000DF1030120460122012321
:101900002F60C5F800A0FFF73DFB0020C5F8009050
:101910008DF803000DF103012046012201232F6001
:10192000C5F800A0FFF72EFB0720C5F800908DF842
:1019300003000DF103012046012201232F60C5F8A9
:1019400000A0FFF71FFB0220C5F800908DF80300F0
:101950000DF103012046012201232F60C5F800A0EC
:10196000FFF710FB1020C5F800908DF803000DF173
:1019700003012046012201232F60C5F800A0FFF7D4
:1019800001FBE120C5F800908DF803000DF1030183
:101990002046012264232F60C5F80080FFF7F2FA89
:1019A0000DF10301204601220123C5F800908DF8B6
:1019B00003B02F60C5F800A0FFF7E4FA0DF10301B2
:1019C000204601220123C5F800908DF803602F60A6
:1019D000C5F800A0FFF7D6FA0DF103012046012259
:1019E0000123C5F800908DF803B02F60C5F800A062
:1019F000FFF7C8FA1720C5F800908DF803000DF125
:101A000003012046012201232F60C5F800A0FFF743
:101A1000B9FA3320C5F800908DF803000DF10301E9
:101A20002046012201232F60C5F800A0FFF7AAFA83
:101A30002C20C5F800908DF803000DF1030120461D
:101A4000012201232F60C5F800A0FFF79BFA29208F
:101A5000C5F800908DF803000DF103012046012226
:101A600001232F60C5F800A0FFF78CFA2E20C5F8DF
:101A700000908DF803000DF103012046012201239F
:101A80002F60C5F800A0FFF77DFA30260DF10301A5
:101A9000204601220123C5F800908DF803602F60D5
:101AA000C5F800A0FFF76EFA0DF1030120460122F0
:101AB0000123C5F800908DF803602F60C5F800A0E1
:101AC000FFF760FA3920C5F800908DF803000DF19A
:101AD00003012046012201232F60C5F800A0FFF773
:101AE00051FA3F20C5F800908DF803000DF1030175
:101AF0002046012201232F60C5F800A0FFF742FA1B
:101B000000260DF10301204601220123C5F80090B3
:101B10008DF803602F60C5F800A0FFF733FA0720A7
:101B2000C5F800908DF803000DF103012046012255
:101B300001232F60C5F800A0FFF724FA0320C5F8A1
:101B400000908DF803000DF10301204601220123CE
:101B50002F60C5F800A0FFF715FA1020C5F8009017
:101B60008DF803000DF103012046012201232F60AF
:101B7000C5F800A0FFF706FA2A20C5F800908DF8F6
:101B800003000DF103012046012264232F60C5F8F4
:101B90000080FFF7F7F90DF1030120460122012330
:101BA000C5F800908DF803602F60C5F800A0FFF71E
:101BB000E9F90DF10301204601220123C5F8009047
:101BC0008DF803602F60C5F800A0FFF7DBF90DF179
:101BD0000301204601220123C5F800908DF803601F
:101BE0004FF0000B2F60C5F800A0FFF7CBF97F2660
:101BF0000DF10301204601220123C5F800908DF864
:101C000003602F60C5F800A0FFF7BCF92B20C5F8D2
:101C100000908DF803000DF103012046012264239A
:101C20002F60C5F80080FFF7ADF90DF103012046E4
:101C300001220123C5F800908DF803B02F60C5F88C
:101C400000A0FFF79FF90DF10301204601220123B7
:101C5000C5F800908DF803B02F60C5F800A0FFF71D
:101C600091F90DF10301204601220123C5F80090EE
:101C70008DF803B02F60C5F800A0FFF783F90DF1D0
:101C80000301204601220123C5F800908DF803606E
:101C90002F60C5F800A0FFF775F93A20C5F800904D
:101CA0008DF803000DF103012046012264232F600B
:101CB000C5F80080FFF766F90520C5F800908DF89B
:101CC00003000DF103012046012201232F60C5F816
:101CD00000A0FFF757F92920C5F800908DF8030000
:101CE0000DF103012046012264232F60C5F8008016
:101CF000FFF748F92C20C5F800908DF803000DF18E
:101D000003012046012264232F60C5F80080FFF7FD
:101D100039F9C5F8009001B0BDE8F08F2DE9F04F1A
:101D200085B005462A2040F6104640F220548DF832
:101D30000900C4F201064FF000674FF08060C2F264
:101D40000004019392468946376030600DF1090125
:101D5000204601226423FFF715F94FF4006B280A8F
:101D6000C6F800B08DF80A004FF480680DF10A0142
:101D70002046012201233760C6F80080FFF702F9F0
:101D80000DF10B01204601220123C6F800B08DF8A9
:101D90000B503760C6F80080FFF7F4F84FEA1A20BE
:101DA000C6F800B08DF80C0003A9204601220123DB
:101DB0003760C6F80080FFF7E5F80DF10D01204609
:101DC00001220123C6F800B08DF80DA03760C6F8D7
:101DD0000080FFF7D7F82B20C6F800B08DF80E0072
:101DE0004FF0806A0DF10E01204601226423376016
:101DF000C6F800A0FFF7C6F84FEA1920C6F800B0F1
:101E00008DF80F000DF10F012046012201233760EC
:101E1000C6F80080FFF7B6F804A920460122012386
:101E2000C6F800B08DF810903760C6F80080FFF754
:101E3000A9F8C6F800B0019D0DF11101280A8DF82E
:101E400011002046012201233760C6F80080FFF709
:101E500099F80DF11201204601220123C6F800B0C5
:101E60008DF812503760C6F80080FFF78BF82C20F1
:101E7000C6F800B08DF813000DF1130120460122C1
:101E800064233760C6F800A0FFF77CF8C6F800B0FE
:101E900005B0BDE8F08F0000FEE70000FEE700009F
:101EA000704700002DE9F04182B01E4690460D4675
:101EB0000446FEF77BFC301A00EB0807FEF776FCC1
:101EC00040F25801C2F200010968C1F3CB317943F5
:101ED000019121688A682A40AA4227D1064618F152
:101EE00001001FD0FEF762FC801BB84222D201988D
:101EF00001990028A1F1010101912168896808BFB9
:101F0000074601EA0500A842ECD00FE088682840A7
:101F1000A8420BD188682840A84207D18868284089
:101F2000A84203D188682840A842EFD0002002B020
:101F3000BDE8F081D4E900014268B1F5827F22F06A
:101F4000E00242600AD1A168B1F5004F02D0B1F5BC
:101F5000806F03D1016821F040010160A16AB1F5F1
:101F6000005F07D1016821F400510160016841F46C
:101F700000510160012084F85100002084F85000D5
:101F8000032002B0BDE8F08170470000FEF714BCEA
:101F900070470000FEE70000B0B540F26C14C2F2DA
:101FA00000042046402100F053FE44F62910C0F6FC
:101FB00000001E21002227F051FD40F21015C2F250
:101FC0000005686001202870204600F00FFE0146E1
:101FD000686829B127F044FE00202870B0BD00BF1A
:101FE00027F02EFE00202870B0BD000070B503461B
:101FF000B1F90000B2F90040B1F902C0B2F90250E3
:10200000B1F904E0B2F90460A042B1F90610B2F9E6
:102010000620C8BF0446AC451C80C8BF6546B6450F
:102020005D80B8BF764691429E80B8BF0A460020C8
:10203000B4424FF00001D8BF01219542D8BF012022
:102040000840DA8070BD00002DE9F04381B00C46F5
:10205000B0F90070B1F900108F423DDBB0F90260B9
:10206000B4F902108E4237DBB0F90490B4F90410D1
:10207000894531DCB0F90680B4F9060080452BDCD7
:1020800015466AB3694620462A46ADF80070ADF899
:10209000026000F097F8F8B1694620462A46ADF88C
:1020A0000090ADF8026000F08DF8A8B169462046B6
:1020B0002A46ADF80070ADF8028000F083F858B100
:1020C000694620462A46ADF80090ADF8028000F03F
:1020D00079F801B0BDE8F083002001B0BDE8F083DD
:1020E000012001B0BDE8F083B0F90020B1F904305F
:1020F0009A4213DCB0F90420B1F900309A420DDBAA
:10210000B0F90220B1F906309A4207DCB0F90600B6
:10211000B1F902108842A4BF012070470020704727
:102120002DE9F04381B00C46B0F90460B1F900101C
:102130008E4211DBB0F90670B4F902108F420BDB4E
:10214000B0F90080B4F90410884505DCB0F90290BC
:10215000B4F90600814503DD012001B0BDE8F0833C
:102160001546EAB1694620462A46ADF80080ADF82A
:10217000029000F027F898B9694620462A46ADF843
:102180000060ADF8029000F01DF848B9694620469D
:102190002A46ADF80080ADF8027000F013F818B1CF
:1021A000002001B0BDE8F083694620462A46ADF81C
:1021B0000060ADF8027000F005F880F0010001B099
:1021C000BDE8F0832DE9F041B1F90030B0F90040ED
:1021D000A3420DDBB0F904E0734509DCB1F902C09C
:1021E000B0F902108C4503DBB0F90650AC4503DDB5
:1021F0000020BDE8F08100BF012A54DBAEEB0400F3
:10220000013086B200EBD63006B2681A013087B2D0
:1022100000EBD73007B24FEA66087810B8EB670FCB
:10222000B8BF70109042A8BF1046021917B24218EA
:10223000BB4216B2D8BFB44516DD2A1ABB4212B251
:102240002CDC94452ADB391809B2091B01EBD1714A
:102250004F1004EB610602EB6101401A9B1B6044C6
:1022600007FB07F10FE000BF384400B2001B00EB92
:10227000D070421004EB600701EB6000DB1BACEB9D
:10228000000002FB02F11AB2524300B200FB00222E
:1022900000208A4298BF0120BDE8F081AEEB000427
:1022A00024B2A34202DA0120BDE8F081944517DA96
:1022B000B445F8DC201A02B2AEEB020202EBD27295
:1022C00000EB6200181A01EB6201ACEB010100B2F5
:1022D000404309B2571001FB010107FB07F214E06C
:1022E000211A0CB2AEEB040707EBD77701EB6701BD
:1022F00002EB6702591A801A604409B27E10494302
:1023000000B206FB06F200FB00110020914298BFCC
:102310000120BDE8F081000070B5B1F90030B2F9DC
:102320000040B1F902C0B2F90250B1F904E0B2F9CB
:102330000460A342B1F90610B2F90620B8BF1C46EA
:10234000AC450480B8BF6546B6454580C8BF7646F3
:1023500086809142C8BF0A46C28070BD2DE9F04F09
:102360008BB0054627F026FB40F208190021C2F287
:102370000009089103904DB1E868C9F800002846AB
:1023800027F05EFCD9F8000004E000BF0EF0D8FD95
:10239000C9F80000006923F0B9FAD9F800104869BB
:1023A00018B123F0B3FAD9F80010C86923F0AEFAD7
:1023B000D9F80000006A23F0A9FAD9F800000169F1
:1023C000002900F08580B0F85011002900F08680C7
:1023D00000250DF1240A4FF0010804E0002100BFA0
:1023E00001358D424CD2421992F83021002AF7D1A2
:1023F0000029F3D0002406E0D9F800000134B0F839
:1024000050118C42ECD2011991F830110029F3D10E
:10241000AC42F1D000F1300101EBC50001EBC40189
:10242000FFF762FE0028E7D0D9F80000303000EB5B
:10243000C50100EBC4025046FFF76EFF50460AF09C
:1024400011FFD9F80010064601EBC50030300AF044
:1024500009FFD9F80010074601EBC40030300AF03C
:1024600001FF38448642C7D2D9F80000DDE90923CC
:1024700000EBC50120440A634B6380F83081BBE761
:10248000B0F850810021B8F1000FC9F8041000F035
:10249000CD81B8F1010F25DB00EB080191F82F2168
:1024A00022B3B8F1020F1DD391F82E2112B3B8F167
:1024B000030F17D391F82D2102B3B8F1040F11D3F4
:1024C00091F82C11A8F104080029E2D118E000BF0E
:1024D0000021A0F850110BB0BDE8F08F0020C9F822
:1024E0000400A3E14FF000080AE000BFA8F10108D2
:1024F00006E000BFA8F1020802E000BFA8F103084F
:1025000001684A6B22B108469047D9F8000001687B
:10251000C9688A6922F001028A610168C9688A690A
:1025200022F002028A61B0F8502190F82810002AA7
:1025300041F0040280F8282000F074810027CDF8D3
:1025400008801BE0816962F341018161C6F808B02F
:10255000304628F08DFDD9F8000000EBC700303080
:102560000AF080FE0146D9E900021144C9F80410BE
:10257000B0F8501101378F4280F00E81C11991F8E7
:1025800030110029F4D1474505D10168C9688A692D
:1025900042F001028A61016800EBC705C96805F1D4
:1025A000300B8A6922F002028A610168CA68CE6B28
:1025B00092683260097C89071ED00EF0DBFCD9F8E6
:1025C0000010441E08460EF02BFD013805B223B260
:1025D00050460021002200950AF07EFED9F8000046
:1025E000C6F804A00168D1E9030182698907A9D569
:1025F00042F00201D346A8E735F9364FBBF8008018
:10260000294631F8022D0691294631F804AD04928D
:1026100005910EF005FD8442CDF81CB002DAB5F844
:1026200000B005E0D9F800000EF0FAFCA0F1010BB3
:102630000498A4EB0A02A0EB0800411CD9F80000A2
:1026400009B20068531CC5688269ED68B5FBF1FAF0
:1026500019B28A45C8BF8A4692B300210991ADF8E4
:102660002810AAF1010509A9ADF82A509047BDF834
:102670002610BDF92A00411A013109B28A4515DA3E
:1026800028B201281ADBD9F80000013D006809A929
:102690008269ADF82A509047BDF82610BDF92A008E
:1026A000411A013109B28A45EADB03E00FFA8AF1E7
:1026B000012903DB00F1010A02E000BF4FF0000A2C
:1026C00005980FFA8BF5B0F900000AEB00014A1EDD
:1026D000AA4280B212DD0021DDF808800DF1240A43
:1026E000A9423FF438AF3BE0304628F0C1FC20B2AD
:1026F00000EB0A014A1EAA42204627DC079B0C4633
:102700001B880FFA82F8ADF82430069B45451B88DC
:10271000ADF82600ADF8283009ABD9F80000ADF8C7
:102720002A207360B36000681FFA8BF2C06881686A
:102730003160BCBFADF82AB0D8461FFA88F18A4292
:10274000D2D1816941F002018161CDE70FFA88F1B0
:102750002046DDF808800DF1240AA9423FF4FBAEC3
:1027600007990988ADF8241006990988ADF8260064
:10277000D9F80000ADF82810ADF82AB0C6F804A0CA
:10278000C6F808A00068C06881683160816941F0BE
:1027900002018161DCE600BF90F82820002902F0E8
:1027A000FB0280F8282041D00168097C89071AD5EE
:1027B0000EF0E0FBD9F80010441E08460EF030FC85
:1027C000013807B223B250460021002200970AF0D8
:1027D00083FDD9F800000168C96BC1F804A003F0BB
:1027E00053FFD9F8000030304FF480711CF082FDA7
:1027F000D9F80000202100F598701CF07BFDD9F875
:1028000000000021A0F85011039827F0CDF808909F
:10281000D9F800000068436A43B10899D9F8042048
:10282000984703E001F0FB0180F828101BF028FF17
:1028300000F04AF800F004F80BB0BDE8F08F00009B
:1028400010B540F2E824C2F200042068002818BF46
:102850001CF0EEF820461C211CF04CFDE06900281D
:1028600018BF1CF0E5F804F11C001C211CF042FD0F
:10287000A06B002818BF1CF0DBF804F138001C2105
:102880001CF038FD606D002818BF1CF0D1F804F171
:1028900054001C21BDE810401CF02CBD40F21C511E
:1028A000C2F20001096804E00A7E42F001020A76E1
:1028B0004969002908BF70474A688242F4D00A6813
:1028C0008242F5D1F0E700007047000040F260104E
:1028D000C2F20000042100F0BBB9000040F2781001
:1028E000C2F200001C2100F0B3B900002DE9F04F46
:1028F00085B00E9E1D46002B834608BFB6F5807F2F
:1029000074D0DDF83C8000230139013A019301A81D
:10291000ADF80810CDF80A30ADF80E20ADF8101063
:10292000ADF81220294632464346071D00F108093A
:1029300000F10C0A23F040F8384629463246434657
:1029400023F03AF8484629463246434623F034F805
:10295000504629463246434623F02EF8BDF904205E
:10296000BDF90830BDF90C60BDF910409A421F4610
:10297000BDF90610BDF90A00B8BF1746A6422546A4
:10298000B8BF3546AF42B8BF3D46AF1E9A42ABF81E
:102990000070C8BF1346A642C8BF3446A342C8BF92
:1029A0001C46BDF90E70BDF9125081420246B8BFF7
:1029B0000A46AF422E46B8BF3E46B242B8BF1646A0
:1029C000B21E8142ABF80220C8BF0846AF42C8BF62
:1029D0003D46A31CA842C8BF0546A81CABF804305E
:1029E000ABF8060005B0BDE8F08F00BF0020CBF8C3
:1029F00000004B1E501EABF80430ABF8060005B0CB
:102A0000BDE8F08FF0B581B016460C46074626F0BB
:102A1000D1FFA2B240F2D834C2F2000405462046EB
:102A20003946334618F0E2FF30B1E0690021A16277
:102A300070B1204601B0F0BD20462C211CF05AFC9C
:102A40004FF00040A0620024204601B0F0BD00BF5E
:102A5000284626F0A9FF002808BF0120E061204693
:102A600001B0F0BD10B540F28414C2F2000420465B
:102A7000142100F0EDF8204600F0F2F8B0B1142176
:102A800004461CF037FC4AF67170C0F601004BF2A8
:102A90006D014BF27D224AF63973C0F60101C0F692
:102AA0000102C0F601030FC410BD00BFFEE7000025
:102AB000F0B585B004460D4620B90EF041FA044643
:102AC00000284ED094F8280040074AD40020CDB307
:102AD000029020460EF04EFA0138ADF80C00204668
:102AE0000EF09EFA0138ADF80E00684602AA29469B
:102AF000FFF77CFAA8B32068017C890726D4826995
:102B00000AB169469047B4F8500168B304F1300542
:102B100000276E46304629460022FFF795FA00BB93
:102B2000B4F8501101378F4205F10805F2D31F297F
:102B30001BD9DDE902020021A4F850112063626371
:102B400019E000BFA4F8500105B0F0BD0298039948
:102B500020630120A4F850016068616308B127F088
:102B60007FF805B0F0BD00BF0021DDE9002304EBD4
:102B7000C10002634363606801310028A4F850116A
:102B800018BF27F06DF805B0F0BD0000F0B581B0BA
:102B900010B345680446FDB1002707E0002BA36091
:102BA00014BF9F5067601BF043FFADB1D4E9001321
:102BB00028460A1DAD5883420AD0A668435886426B
:102BC000ECD0002B18BF9D5055B16B50EBE700BF08
:102BD00065601DB16F50E6E701B0F0BD0021A16056
:102BE00001B0BDE8F0401BF023BF0000002814BF77
:102BF0004068002070470000D0B14268C2B1006850
:102C0000011D03200FE000BF5258002A04BF013805
:102C100070475258002A08BF704752580430002AA3
:102C200004BF033870475258002AEDD1023870476C
:102C300000207047006808444068704700680858E2
:102C400070470000002814BF806800207047000013
:102C50000331002221F00301C0E9001282607047B5
:102C600010B50446006808301BF0ECFC002808BFD3
:102C700010BD216800224250626843185A606268A1
:102C8000002A18BF5050A1686060002908BFA060EA
:102C900010BD000010B50446006808301BF0D2FCDF
:102CA000002808BF10BD22680023111D4350A368EF
:102CB0008350A268002A18BF50506168A0600029A4
:102CC00008BF606010BD000030B1416809B980687C
:102CD00010B10020704700BF0120704780B5002868
:102CE00008BF80BD42688A4214D0D0F800E08268F4
:102CF00051F80E308A4219D00EF1040C51F80C0034
:102D0000002B18BF43F80C00002818BF40F80E3005
:102D100080BD00BF0268114449680029416007BFB7
:102D2000002181600020885080BD00BF0021002B61
:102D3000836018BF0EEB0300416080BD10B50446F0
:102D4000006804E00068002808BF10BD20608268A9
:102D5000002AF7D0214690472068F3E780680028D2
:102D600014BFC08A002000B27047000080680028AD
:102D70000EBF0020807E800970470000F0B581B052
:102D80001446C8B1612206460F461FF04DFE98B1A9
:102D90000546006880B13046394662221FF044FE85
:102DA000010609D02B68A1B2C2B22846984760F349
:102DB0000F04204601B0F0BD204660F30F0420460A
:102DC00001B0F0BD2DE9F04F91B00446408CDDF824
:102DD00068B040F00400608422841646BBF80820E6
:102DE00020461F468A461FF01FFE2784BBF8082096
:102DF0000546204651461FF017FE618C814621F0A2
:102E000004004D45608403D102D111B0BDE8F08FBC
:102E10002684BBF80820204651461FF005FE804658
:102E200020465146278407F0F5FE0068BBF80810DD
:102E3000424624F003FFBBF808000B2828D147F6D0
:102E4000FF76B04518BFB14522D120461FF08CFF58
:102E500081B200EBD13000B2451020461FF084FF54
:102E600081B200EBD13000B2B0454FEA600005D12D
:102E7000691C00F101084145B8BF884647F6FF715B
:102E8000894505D1691C00F101094945B8BF89464A
:102E900040F29010C2F20000FFF7E2FED0B3C0E9AA
:102EA000038904600646BBF8080001ACB0802046E8
:102EB000C6F808A009F03EFC40F6B950C0F6030081
:102EC000029041F2CD00C0F60300039041F20D00E4
:102ED000C0F6030004900020CDE90800FF200A900E
:102EE000BBF80000BBF802100B904842DBF80C1056
:102EF0000C909DF842000791DBF8101000F0FE00E6
:102F00008DF8420020460196069109F091FC11B01F
:102F1000BDE8F08FFEE7000040F29010C2F2000022
:102F20001421FFF795BE00002DE9F04782B004465A
:102F3000408C10F4FC7F00F02B816FEA01086FEAEF
:102F400002094FF0000A01AD002709E04FF0020A24
:102F5000608C00BF0137C0F3C5018F4280F0128141
:102F6000E16801EBC70252689301F3D492B212EA0E
:102F7000080302EA0902B2FA82F24FEA521218BFBB
:102F800001235340E6D151F83760102130462A46DC
:102F900024F06CFB002840F0F380304611212A46D3
:102FA00024F064FB002840F0EB80304612212A46D2
:102FB00024F05CFB002840F0E380304613212A46D1
:102FC00024F054FB002840F0DB80304615212A46CF
:102FD00024F04CFB002840F0D380304614212A46D0
:102FE00024F044FB002840F0CB8030460A212A46DA
:102FF00024F03CFB002840F0C38030466A212A467A
:1030000024F034FB002840F0BB8030466B212A4678
:1030100024F02CFB002840F0B380304601212A46E2
:1030200024F024FB002840F0AB80304604212A46DF
:1030300024F01CFB002840F0A380304602212A46E1
:1030400024F014FB002840F09B80304603212A46E0
:1030500024F00CFB002840F09380304605212A46DE
:1030600024F004FB002840F08B80304606212A46DD
:1030700024F0FCFA002840F08380304632212A46B2
:1030800024F0F4FA00287BD130466D212A4624F042
:10309000EDFA002874D130466C212A4624F0E6FA75
:1030A00000286DD1304668212A4624F0DFFA002836
:1030B0007FF44CAF304669212A4624F0D7FA002825
:1030C0007FF444AF30466D212A4624F0CFFA002821
:1030D0007FF43CAF30466C212A4624F0C7FA002822
:1030E0007FF434AF304637212A4624F0BFFA002857
:1030F0007FF42CAF304638212A4624F0B7FA002856
:103100007FF424AF304635212A4624F0AFFA002858
:103110007FF41CAF304640212A4624F0A7FA00284D
:103120007FF414AF304645212A4624F09FFA002848
:103130007FF40CAF304641212A4624F097FA00284C
:103140007FF404AF304642212A4624F08FFA00284B
:103150007FF4FCAE304643212A4624F087FA00284B
:103160007FF4F4AE304649212A4624F07FFA002845
:103170007FF4ECAEBAF1000F08BF4FF0010AE7E6AA
:103180004FF0030A5FFA8AF002B0BDE8F08700BF93
:103190004FF0000A5FFA8AF002B0BDE8F087000045
:1031A00040F20810C2F2000000687047704700004B
:1031B000C0F30410072828BF072070474FF6FF719F
:1031C000884204BF1F207047002804BF00207047BA
:1031D0006F2805D841F24661C0F60301085C7047CC
:1031E00040F23811C2F20001096851B140F20442C4
:1031F000C2F200027038126880B2824284BF085C5A
:10320000704700207047000080B540F23C10C2F2C9
:1032100000001821FFF71CFD40F2A810C2F20000C8
:103220000121417080BD00002DE9F04190B31646A8
:1032300004460D46FDF786F840F25C08C2F200082D
:10324000D8F800200746204629469047D8F80020A5
:103250000546204431469047391A8D421AD82044F9
:103260000CE000BF9F78EE1C8E42977088BFBDE8CF
:10327000F081DB7804358D42D3700BD8425D6B1C36
:103280008B42625506D843195F78AE1C62198E4294
:103290005770E7D9BDE8F0812DE9F04140F2080808
:1032A000C2F200081446D8F804200F4619461D46FD
:1032B00006469047386048B12868D8F80420304462
:1032C000002190472060BDE8F08100BF0020206011
:1032D000BDE8F0812DE9F04F8DB0DDF858A08146B2
:1032E000BAF1000F1D460C461CBF0020AAF80000D2
:1032F000B9F1000F36D0002C4FF0000000F024830D
:1033000099F80010002900F01F83179810F0060F9D
:103310002CD00020012242F2014301E0397904302F
:103320000D2904D802FA01F71F4240F07A8109EB17
:10333000000779780D2904D802FA01F61E4240F000
:103340006D81B9780D2904D802FA01F61E4240F0C9
:103350006781F9780D29E1D802FA01F61E42DDD025
:1033600003305EE100200DB0BDE8F08F0021012D9B
:103370000A91C0F2D582C007CDF80890079209944F
:1033800040F05E8149464FF0000B002640F20800F5
:10339000C2F20000426800200C90089108460CA977
:1033A0009047044619F806000C9900280B9100F08C
:1033B000F180A8B2059008980696CDE9035B00223B
:1033C0004FF0FF3700264FF0000B4FF000090EE0E2
:1033D0007A1C2A4608BF0A46DDE90B1908980C91A9
:1033E00010F8091001360029444600F0D68040F25A
:1033F0000801C2F2000115464A680BA9BA46904777
:10340000804609982146424616F004FF01B28344E3
:1034100007980029C8BF83440FFA8BF1059A081A50
:1034200090424F46D8BF4FF0FF371AF1010218BF44
:1034300057460A2C00F096800D2C00F09380A4F5DE
:103440009C4245F2A6139A42C0F08C80A4F120025F
:103450003F2ABDD80FF2080303EB82039F4600BF4B
:1034600000F080B800F07CB800F07AB800F078B8CE
:1034700000F076B800F074B800F072B800F070B8E0
:1034800000F06EB800F06CB800F06AB800F068B8F0
:1034900000F068B800F066B800F064B800F060B8FA
:1034A00000F05EB800F05CB800F05AB800F058B810
:1034B00000F056B800F054B800F052B800F050B820
:1034C00000F04EB800F04CB800F04CB800F04AB82C
:1034D00000F046B800F044B800F042B800F040B840
:1034E00000F03EB800F03CB800F03AB800F038B850
:1034F00000F036B800F034B800F032B800F030B860
:1035000000F02EB800F02CB800F02AB800F028B86F
:1035100000F026B800F024B800F022B800F020B87F
:1035200000F01EB800F01CB800F01AB800F018B88F
:1035300000F016B800F014B800F012B800F010B89F
:1035400000F00EB800F00CB800F00AB800F008B8AF
:1035500000F006B800F004B800F002B800F002B8BD
:1035600036E700BFB9F1000F16D17A1C20D1DDF883
:1035700010B000270A46DDF858A0DDE902951EB319
:103580000D2C45D1069EB8F10A0F08BF0C9F93443D
:1035900007BBBDE1002218E02A46DDF810B0791C17
:1035A0000BD0069EDDF858A0DDE9029576B1B1E1B9
:1035B0002A46DDF810B0791CF3D14F46DDF858A04B
:1035C000DDE90295002EDBD1069E0C9F002F93446F
:1035D00000F09E8199F800103E440A290A9600F0F6
:1035E00097810D2900F0948119F806000A2800F04F
:1035F0008D810D2800F08A81002800F08981A81AA9
:1036000005B2002D09EB06013FF7C0AE80E100BF17
:10361000069E002F9344DDD17AE100BF013000E027
:103620000230002918BF0130BAF1000F00F08C8180
:103630004FF6FF71AAF800100DB0BDE8F08F00BF83
:103640004C464FF0000B0027002600BF40F2080058
:10365000C2F20000426800200C9020460CA990475E
:10366000804619F806000C99002806960B9100F088
:103670000581A8B201900020CDE9035B08904FF0CE
:10368000FF304FF0000B4FF0000900254646059033
:103690000BE000BF0127DDE90B050BF1010B0C90DE
:1036A000605D4646002800F0DD8040F20800C2F26E
:1036B0000000426820460BA99047232E804605D182
:1036C000002FE7D0022F09D10027E4E7012F09D10D
:1036D000202E0CBF02270127DDE700BF2326012F84
:1036E00008BF002709983146424616F093FD01B203
:1036F000814407980029C8BF81440FFA89F1019AD3
:10370000081A90422846D8BF4FF0FF30059B5A1C3C
:1037100018BF18460A2E00F0C3800D2E00F0C0809E
:10372000A6F59C4245F2A6139A42C0F0B980A6F1D4
:1037300020023F2A00F286800FF2080303EB820387
:103740009F4600BF00F0ACB800F07CB800F07AB83B
:1037500000F078B800F076B800F074B800F072B8F5
:1037600000F070B800F06EB800F06CB800F06AB805
:1037700000F068B800F094B800F092B800F090B88B
:1037800000F060B800F05EB800F05CB800F05AB825
:1037900000F058B800F056B800F054B800F052B835
:1037A00000F050B800F04EB800F04CB800F078B817
:1037B00000F076B800F046B800F044B800F042B827
:1037C00000F040B800F03EB800F03CB800F03AB865
:1037D00000F038B800F036B800F034B800F032B875
:1037E00000F030B800F02EB800F02CB800F02AB885
:1037F00000F028B800F026B800F024B800F022B895
:1038000000F020B800F01EB800F01CB800F01AB8A4
:1038100000F018B800F016B800F014B800F012B8B4
:1038200000F010B800F00EB800F00CB800F00AB8C4
:1038300000F008B800F006B800F004B800F002B8D4
:1038400000F02EB80C9D421C625D089B08BF0B4621
:103850000B99002A0BF1010B08930C917FF416AF22
:10386000464645E0DDF80890089A059B4646581CF8
:1038700006D0069EDDE9035B0EB34BE000221CE0A0
:103880002B46BBF1000F16D0DDE9035B0D2E35D1C1
:10389000069EB8F10A0F08BF0C9B93448BB937E022
:1038A00035BB421CDDF80890089A2DD100230A464A
:1038B000BBF1000FE8D1DDE9035B069E0C9B93444E
:1038C00033B399F800001E440A280A9620D00D2828
:1038D0001ED019F806000A2818D00D2816D0B8B145
:1038E000A81A05B2002D09EB06043FF7AFAE0FE0B2
:1038F000DDF80890089A0346B9E700BF069E002B42
:103900009344DED104E000BF0346B0E701360A96D7
:10391000099C2EB1BAF1000F18BFAAF800B012E04E
:1039200040F20800C2F2000042680AA948469047E7
:10393000BAF1000F07D001462046002216F06AFCBB
:103940008346AAF800B00A980DB0BDE8F08F0000D9
:103950002DE9F04F83B0002800F092801646002A2F
:1039600000F08E80074630460D46FCF7EBFC002841
:1039700000F08680044638460196FCF7E3FC824658
:1039800040F25C00C2F200000268384629460AEBA9
:1039900004060297904700EB040C664514D2029986
:1039A00014F003020844A4F1010145D0019E012A4C
:1039B000334613F8017B00F8017B41D11E460C46CB
:1039C00003295DD34DE000BF0299A4F1030E4A1E06
:1039D00021444D1EA4F10209214600BF02EB0A0357
:1039E0000AEB010893F801B0A8F1010605EB0A07FC
:1039F000664587F801B0D2D312F80A800AEB0906AF
:103A0000664505F80A80CAD313F8018C0AEB0E0646
:103A1000664507F8018CC2D313F8023C043907F855
:103A2000023C0AEB0103043AAEF1040E043D634587
:103A3000A9F10409D2D2B2E7019E032920D310E0F4
:103A40007378022A00F8013B04D10236023C0329B4
:103A500016D306E0B278033600F8012B033C0329A5
:103A60000ED3311F043800BF11F8042F043C00F8B6
:103A7000042F4A7842708A788270CA78C270F3D173
:103A800003B0BDE8F08F0000037823290CD1032B8D
:103A900024BF00207047D9004FF0010C2CFA01F22E
:103AA0002CEA030109E000BF012B1CBF0020704776
:103AB00020294FF0010101D102220270084670470F
:103AC0002DE9F04182B004460B46CDE900110020FB
:103AD000002122464FF0000826F0E0FD451C074675
:103AE00028461AF0AFFD58B100F80780019B29461F
:103AF0002246064626F0D2FD304602B0BDE8F081EF
:103B0000FEE700002DE9F04702B3DDF820909A4669
:103B100014460F46804606E064F001003044441C21
:103B200005EB0A0774B1660806FB0A75404629468C
:103B3000C8470128F0DAB0F1FF3F3446F2DD2846ED
:103B4000BDE8F08700252846BDE8F0870020BDE8E5
:103B5000F08700002DE9F04F83B0129F0DF1300C7B
:103B60001E46DDE910489CE808188A46814617F091
:103B7000020015460190029248D1B8F1000F0BD017
:103B8000F8070BD017F00C0018BF012040EA0C001A
:103B9000A8EB000802E000BF4FF00008A34518D2D0
:103BA000BBF11F0F15D86FEA0B012144CBF11F05A4
:103BB00003EB0B00A94238BF0D46691C3022FCF70D
:103BC000E0FBDDF838C00C9B05EB0B00029D00F11B
:103BD000010BF8071AD0C34518D2BBF11F0F15D837
:103BE0006FEA0B014144CBF11F0503EB0B00A94227
:103BF00038BF0D46691C3022FCF7C3FBDDF838C026
:103C00000C9B0BEB0500029D00F1010BF80636D56D
:103C10000F98790510D4BBF1000F0DD0A34518BF44
:103C2000C34509D1BBF101010A4618BFABF102023D
:103C3000102818BF0A469346102807D117F0200015
:103C40000CD1BBF1200F09D278200CE002280ED154
:103C5000BBF11F0F0BD8622005E000BF38B1BBF1EC
:103C6000200F04D2582003F80B000BF1010BBBF11D
:103C70001F0F18D8302003F80B000BF1010BBBF11C
:103C80001F0F10D8BCF1000F02D02D2007E000BF9D
:103C9000780703D4380706D5202000E02B2003F84E
:103CA0000B000BF1010BB8072C460DD1C3452C4678
:103CB0000AD2A8EB0B072A46202051463346541C53
:103CC000C847013F2246F7D1BBF1000FCDF8008075
:103CD00012D00C98A0F1010818F80B0051462246AA
:103CE0003346ABF10105671CC847002D3C46AB4687
:103CF000F2D1019818B917E027460198A0B10299AE
:103D0000DDF80080781A40450ED24D422020514601
:103D10003A4633467C1CC847281940452746F5D308
:103D2000204603B0BDE8F08F3C46204603B0BDE816
:103D3000F08F00009A4238BF8854704770470000E7
:103D40002DE9F04F99B00E46229943F63D571C4697
:103D50009246C0F6000700251091002E18BF0746B6
:103D600004F1020B2078A946002800F0CF8500BF9F
:103D700025280FD031464A46534609F10105B84778
:103D800001340BF1010B2078A9460028F0D100F096
:103D9000BDBD00BF109C4FF00008CDE90C761BF8AC
:103DA000010CA0F12002102A00F2E4800FF20801B9
:103DB00001EB820301219F4600F020B800F0DAB841
:103DC00000F0D8B800F01CB800F0D4B800F0D2B8B9
:103DD00000F0D0B800F0CEB800F0CCB800F0CAB80F
:103DE00000F0C8B800F00EB800F0C4B800F00CB88D
:103DF00000F0C0B800F0BEB800F008B8082105E037
:103E0000102103E0042101E0022100BF9BF8000023
:103E100048EA0108A0F12002102A00F2F7800FF210
:103E20000C0101EB820301219F4600BF00F020B886
:103E300000F0ECB800F0EAB800F01CB800F0E6B80A
:103E400000F0E4B800F0E2B800F0E0B800F0DEB84E
:103E500000F0DCB800F0DAB800F00EB800F0D6B828
:103E600000F00CB800F0D2B800F0D0B800F008B8FC
:103E7000082105E0102103E0042101E0022100BF38
:103E80009BF8010048EA0108A0F12002102A00F284
:103E90000B810FF20C0101EB820301219F4600BF51
:103EA00000F020B800F000B900F0FEB800F01CB837
:103EB00000F0FAB800F0F8B800F0F6B800F0F4B886
:103EC00000F0F2B800F0F0B800F0EEB800F00EB874
:103ED00000F0EAB800F00CB800F0E6B800F0E4B882
:103EE00000F008B8082105E0102103E0042101E0FA
:103EF000022100BF9BF8020048EA0108A0F120025D
:103F0000102A00F2DB800FF20C0101EB8203012189
:103F10009F4600BF00F028B800F0D0B800F0CEB83F
:103F200000F024B800F0CAB800F0C8B800F0C6B875
:103F300000F0C4B800F0C2B800F0C0B800F0BEB8DD
:103F400000F016B800F0BAB800F00CB800F0B6B83F
:103F500000F0B4B800F000B848EA01080BF1040B17
:103F60001DE700BF0221F7E70821F5E71021F3E77D
:103F70000421F1E7ABF10201ABF1010BA0F130023A
:103F8000D2B2092A49D80BF1020B0026C2B21BF8A3
:103F9000010C06EB860102EB4101A0F13002D2B226
:103FA000092AA1F1300600F26F8106EB860100EBD1
:103FB00041019BF80000A1F13006A0F13002D2B21D
:103FC000092A00F2638106EB860100EB41019BF8B0
:103FD0000100A1F13006A0F13002D2B2092A00F2AC
:103FE000B18106EB860100EB41019BF80200A1F1D3
:103FF0003006A0F13001C9B20A290BF1040BC5D378
:10400000ABF1020B2E2800F044811DE0ABF1010161
:10401000A0F13002D2B2092AB5D92A2810D154F819
:10402000040B0028064648BF4642002811F8020F3C
:1040300048BF48F002088B462E2800F02A8103E092
:1040400000262E2800F025810022A0F168014FEA09
:104050007103092B0E920B964FD80FF2100202EB50
:10406000830601214FF48072B74600BF00F012B8FA
:1040700000F030B800F032B800F03FB800F03DB8C2
:1040800000F03BB800F034B800F037B800F035B8B5
:1040900000F02EB8594611F8010F682840F05881F9
:1040A0000221C02224E000BF59460BF1010BA0F110
:1040B0003002D2B2092AB0D865E700BF0BF1010186
:1040C0000BF1020BA0F13002D2B2092A7FF65BAFEE
:1040D000A3E700BF01214FF4007209E0594611F82F
:1040E000010F6C2840F0388102214FF4407200BF6C
:1040F0001BF8010048EA02088B44A0F12503532B6A
:1041000000F234810FF20C0606EB830608216F22C1
:104110001025B74600F024B900F028B900F026B900
:1041200000F024B900F022B900F020B900F01EB967
:1041300000F01CB900F01AB900F018B900F016B977
:1041400000F014B900F012B900F010B900F00EB987
:1041500000F00CB900F00AB900F008B900F006B997
:1041600000F004B900F002B900F000B900F0FEB8A8
:1041700000F0FCB800F0FAB800F0F8B800F0F6B8BB
:1041800000F0F4B800F0F2B800F0F0B800F0EEB8CB
:1041900000F0ECB800F0EAB800F0E8B800F0E6B8DB
:1041A00000F0E4B800F0E2B800F0E0B800F0DEB8EB
:1041B00000F0DCB800F0DAB800F0D8B800F0D6B8FB
:1041C00000F054B800F0D2B800F0D0B800F0CEB88B
:1041D00000F0CCB800F0CAB800F0C8B800F0C6B81B
:1041E00000F028B900F0C2B800F0C0B800F0BEB8C6
:1041F00000F0BCB800F0BAB800F0B8B800F0B6B83B
:1042000000F0B4B800F0B2B800F0BCB800F0BEB82E
:1042100000F028B800F0AAB800F0A8B800F0A6B8DE
:1042200000F0A4B800F01EB800F0A0B800F09EB8EE
:1042300000F09CB800F09AB800F098B800F006B909
:1042400000F014B800F092B800F090B800F0BCB8DC
:1042500000F08CB800F006B800F088B800F086B81E
:1042600000F0E8B828F010080A25E3E05B4613F8F0
:10427000011F48F4887856294FF0100140F0D8808B
:1042800056229B46E2E000BFABF1010B2E287FF4E3
:10429000DBAE594611F8010F48F48068A0F13002F6
:1042A000D2B2092A40D80BF1020B002202EB8201A4
:1042B000C2B29BF8000002EB4101A0F13002D2B281
:1042C000092AA1F130023FF6C0AE02EB820100EBF9
:1042D00041019BF80100A0F13002D2B2092AA1F1FC
:1042E000300200F2738102EB820100EB41019BF886
:1042F0000200A0F13002D2B2092AA1F1300200F28C
:10430000698102EB820100EB41019BF80300A1F1FE
:104310003002A0F13001C9B20A290BF1040BC5D358
:10432000ABF1010B91E600BF2A2807D154F8041B1A
:104330001BF8020F21EAE17287E600BF00228B46DC
:1043400083E600BF0BF1010B2E28A2D07CE600BF54
:1043500048F080088B46D0E648F480788B46CCE65F
:10436000109409F10105252003E000BF09F10105C2
:1043700010940D9E0C9F31464A465346B8470BF1A8
:104380000104EDE40221622260E000BF18F00206A1
:1043900040F0C8810B980228C0F02E82DDE90C782D
:1043A0001094411C444200250F9100BF09EB050207
:1043B000202041465346B847013560190130F5D1F8
:1043C000DDE90F84A9441AE2CDF828A054F804AB23
:1043D0000E9E9AF8000051460028109400F0348296
:1043E000002E08BF4FF0FF36A6F1030CB21E731E5D
:1043F000043E00250AEB05046178002918BFAB4292
:1044000000F09481A178002918BFAA4200F0188218
:10441000E178002918BFAC4500F0148221792C1DE9
:1044200011B1AE422546E5D10AEB04010BE200BF13
:10443000102500BF40F00801582908BF48F02008A7
:10444000642807D069280246294603D028F00C08C2
:1044500010460D465FEA485148BF28F0010856282B
:1044600016D0692801D064282AD15FEA885039D44F
:104470005FEAC8504CD45FEA486000F1AF80D4F8DE
:1044800000C05FEA086048BF0FFA8CFCA8E000BFDC
:1044900054F8040B0D9E41680C9F0D6806EB090152
:1044A00011950368AAEB0902384610940095FFF7AE
:1044B00047FC00EB09050BF10104FFF751BC00BFFD
:1044C0005FEA885034D45FEAC85000F197805FEA11
:1044D000486000F12D8126685FEA086048BFB6B2E7
:1044E00027E100BFE01D20F007000246436852F8B4
:1044F000080B50EA030108BF28F01008CDF828A0E7
:10450000109269BB18F480612AD01F46002257E040
:1045100054F804CBBCF1000F08BF28F01008BCF120
:10452000000F10947AD118F4806077D00026F2E062
:10453000E01D20F00700446850F8086B109056EA20
:10454000040008BF28F010080028CDF828A040F08B
:10455000898018F4806000F085800022A8E000BF08
:1045600010EBE37080EAE37443EBE37080EAE376F8
:1045700008F0200080F061001F46F6304FF0000A7E
:104580000F9000BF204631462A460023FBF73EFE2F
:1045900000FB154202F0FE030A2B0F9B38BF3023AD
:1045A000641B76F1000613440AF1010211AE06F80D
:1045B0000A3005D3BAF11F0F924604460E46E1D3E6
:1045C000F80F11A9CDE9001276E000BF0BF1010B45
:1045D0003BE500BF0BF1020B37E500BF94F800C0CC
:1045E000BCF1000F08BF28F01008BCF1000F1094B8
:1045F0006CD118F4806069D0002689E054F8046B0F
:10460000002E08BF28F01008002E109440F09C8067
:1046100018F4806000F098800023B1E008F02001D9
:1046200081F06101604601F1F60E0023BCF1000F3C
:1046300048BFCCF1000000BFB0FBF5F1724601FBB2
:10464000150606F0FE040A2C38BF302232445E1CE8
:10465000A84211A8C2545ED31F2B33460846EBD3A1
:1046600059E000BF08F0200080F0610000F1F6077B
:104670004FF0000A304621462A460023FBF7C6FDCC
:1046800000FB156202F0FE030A2B3B4638BF3023C5
:10469000761B74F1000613440AF1010211AE06F80C
:1046A0000A3005D3BAF11F0F924606460C46E1D3F5
:1046B00011A8CDE900020020CDE902050E980C9F5B
:1046C00004900B980D9EDDF828A087E008F02001EB
:1046D00081F06101604601F1F60E0022BCF1000F8D
:1046E00048BFCCF1000000BFB0FBF5F1734601FB01
:1046F000150606F0FE040A2C38BF30233344561C3E
:10470000A84211A8835403D31F2A32460846EBD38C
:1047100010980430109011A94FEADC70CDE9001612
:1047200055E000BF0C9F4FF0010868E0611C8AE073
:104730002678002E08BF28F01008109426BB18F425
:10474000806021D000223BE008F0200080F0610072
:1047500000F1F60C002200BFB6FBF5F0614600FB4D
:10476000156303F0FE040A2C38BF30211944531C92
:10477000AE4211AEB15403D31F2A1A460646EBD3FC
:1047800011A8CDE9000321E008F0200080F06100CD
:1047900000F1F60C002300BFB6FBF5F0614600FB0C
:1047A000156202F0FE040A2C38BF302111445A1C55
:1047B000AE4211AEF15403D31F2B13460646EBD382
:1047C00010980430109011A8CDE900020020CDE926
:1047D00002050E980C9F04900B980D9E059038468C
:1047E00031464A465346CDF81880FFF7B3F90546DF
:1047F0000BF10104FFF7B4BA0C9F4FF0020814F854
:10480000040B0D994A46534609F10105B847109427
:1048100086B10B9880450DD20D9EA0EB080400BF19
:104820002A462020314653460135B847013CF7D18E
:10483000A5E500BF0D9E0BF10104FFF791BA00BF83
:10484000A11C00E0E11C0E9EA1EB0A0208F48063AB
:10485000B242314638BF1146002B0F9308BF1146B4
:1048600018F002081DD10B9A914219D2CDF8208080
:10487000DDF82880DDE90C76501C551A00240990DB
:1048800009EB0402202031464346B8470134A542D3
:10489000F6D19AF80000DDF82080A14404E000BFC2
:1048A0000131DDE90C760991C0B10AF10104DDF8AE
:1048B00028A00CE001390E91C0B231464A46534659
:1048C00009F10105B84714F8010BA94648B10F9941
:1048D0000029F1D00E990029ECD101E0DDF828A0E3
:1048E0004D46B8F1000F3FF44AAD0B98099981424B
:1048F000BFF445AD441A00BF2A4620203146534636
:104900000135B847013CF7D139E500BF4A460020E0
:1049100031465346D14528BFAAF10102B84748465F
:1049200019B0BDE8F08F00002DE9F04F81B040F2E2
:104930001017C2F20007B86825F036F879780446F7
:1049400081F00100787040F26C10C2F20000FEF7B6
:104950004DF9002800F0A88040F26C1B06464FF08D
:104960000008C2F2000B4FF6FF794FF0010A07E092
:1049700058463146FEF75EF90646002800F094805E
:1049800096F83E007978C0F380028A4287F800806A
:104990005ED000F0FB0242EA8102F16A030786F86A
:1049A0003E201AD4002918DC0A1916D4C00709D1F0
:1049B000316939B130468847F169726A014410445F
:1049C000F1617062B16809B13046884796F83E00DF
:1049D000F16A40F0080086F83E000819F06237D40A
:1049E000B16A8842C8BFF162B16930468847326A0D
:1049F000904205D07268014630620AB13068904733
:104A0000D6E90A01814223DB96F83E10B38F11F0FC
:104A1000020204D11BB14B451CBF013BB3871B04F1
:104A200006D0D6E90D356D42F5628BB11AB105E0BD
:104A3000736BCBB1C2B9326B5242F26281F00201A8
:104A400086F83E10716AF269F161C6E90923706364
:104A5000387801287FF48CAF5846FEF7C7F8064631
:104A600000287FF48DAF1FE058463146FEF736F937
:104A7000584687F800A0FEF7B9F80146786869B192
:104A800025F0EEF8F16809B130468847304619F054
:104A9000CFFF387801287FF46BAFDDE725F0D0F841
:104AA000F1680029F0D1F1E724F084FFB86001B08B
:104AB000BDE8F08FB0B5044640680D4610B12946F8
:104AC000FFF7F8FF2268002A08BFB0BD204629463C
:104AD000BDE8B0401047000089B208F0DDBA000020
:104AE00089B208F039BB0000B0B5002942D0802956
:104AF0000B460BD3B1FA81F2C2F11A024FF0FF3329
:104B000003FA02F2D24353187F2B35D89A080023B8
:104B100000EB8305D5F814C04FF0FF3505FA02F21B
:104B200012EA0C0212D092FAA2F2B2FA82FE00EB62
:104B3000C31202EB8E0454F8342FDAB1556825F015
:104B400003058D4228D200BFFEE700BF0269013392
:104B500005FA03F31A400DD092FAA2F2B2FA82F3E8
:104B600000EB8302D2F814C0BCF1000F6246DAD128
:104B7000FEE700BF0020B0BD0022B2EB933F25D17D
:104B8000B3FA83F5C5F11A0223FA02F282F0200289
:104B9000C5F11903BCE700BFD568CDB19168C9B1B3
:104BA000CD60A9602568954210D1814221600DD168
:104BB000012101FA0EF52CEA050500EB830465617D
:104BC00025B90569994025EA010101611046B0BD8A
:104BD000FEE700BFFEE70000F0B54A68032A0BD9E4
:104BE000043A22F0030301F108029B1806D05D6825
:104BF000EC0705D10846F0BDFEE700BFFEE700BFA9
:104C000025F003047F2C3BD84FEA950E4FF0000CA3
:104C1000DD68002D42D09C6864B3E560AC6000EBB9
:104C2000CC1505EB8E0555F8346F9E4211D18442A8
:104C30002C600ED100EB8C0501276E6907FA0EF48B
:104C4000A6436E612EB9066907FA0CF726EA070734
:104C50000761486803280FD95B68043323F0030316
:104C600018440328486009D9043820F00300815013
:104C70000846F0BDFEE700BFFEE700BFFEE700BF4D
:104C8000B4FA84FCCCF11A0524FA05F585F0200E5F
:104C9000CCF1190CDD68002DBDD100BFFEE700008E
:104CA00070B539B122B14B68DD0705D1FEE700BF11
:104CB000FEE700BF002070BD23F0030402F11005E1
:104CC000AC4211D2032B40F28380181F20F0030264
:104CD00001F108000244536823F0020353604A685C
:104CE00022F001024A6070BD01F1080E02EB0E03D2
:104CF000DD1D1E1D25F00305AE4201D0FEE700BFFD
:104D0000A3F1040CA31ADCF80440043B04F00304F0
:104D10001C430B2BCCF804402CD94B6803F0030345
:104D20001A434A60DCF80420032A25D9043A22F009
:104D30000304A219536844F806C043F00203536009
:104D4000DCF8042042F00103CCF804304B68032B5C
:104D500014D9043B23F0030343F80E1022F003039D
:104D600042F003067F2BCCF8046009D84FEA920E7C
:104D700000230EE0FEE700BFFEE700BFFEE700BF36
:104D8000B3FA83F2C2F11A06F34083F0200EC2F1A7
:104D9000190300EBC31202EB8E0252F8344FCCB170
:104DA000CCE90240C4F80CC00124056904FA03F6FA
:104DB0003543056100EB8300436904FA0EF6334383
:104DC00043614B68C2F800C0032B3FF67EAF00BFC3
:104DD000FEE700BFFEE70000B0B582B0044617F062
:104DE0001DFB054617F05AFB40B1208FE086204698
:104DF0001EF04EFB012002B0B0BD00BF606A012171
:104E00001EF024F830B1204614F0E0FE012002B07C
:104E1000B0BD00BF204601211CF0D2F84FF6FF7153
:104E2000606A618701211BF0F1F9204620210022F0
:104E300015F080F8218FE08E81420BD02087019001
:104E400001AA20461C2115F075F80128D3D120466F
:104E50001EF01EFB284617F02DFB0428D6D1204655
:104E60001CF054FF002115F0BFFF012002B0B0BDBF
:104E7000B0B515F05BF804461CF0D4FF054620469B
:104E800009F0F4FB014628460122BDE8B04023F0BA
:104E9000FDBC00002DE9F04F8FB0CDE909200B914A
:104EA000C8784DF2E9214DF2F522C0F60001C0F6B6
:104EB00000020C9310F0010008BF0A464DF28D214C
:104EC000DDF87080C0F6000106924DF259220B46C3
:104ED000C0F6000208BF1346D8F810E00893002877
:104EE00008BF0A46079203E05FEACC7000F0C88072
:104EF000BEF1000F00F0C480B8F80200B8F804104A
:104F0000D8F80C30AEF10102032AA0EB010B03D25A
:104F10000024002243E000BF2EF0030703F1300617
:104F20000024002207E000BF308B02440434A74273
:104F300006F1500633D016F8200CC00714D136F80D
:104F4000240C024416F80C0CC00715D036F8140CCB
:104F5000ABEB000B307AC00714D03088ABEB000B02
:104F6000307FC007E0D012E036F8280CABEB000B26
:104F700016F80C0CC007E9D136F8100C0244307A50
:104F8000C007EAD1B0880244307FC007CCD0B08AD5
:104F9000ABEB000B0434A74206F15006CBD11EF058
:104FA000030731D004EB840003EB8000067CF60796
:104FB00004D180890244012F05D125E00089ABEBA3
:104FC000000B012F20D0601C00EB800003EB800061
:104FD000067CF60704D180890244022F05D113E034
:104FE0000089ABEB000B022F0ED0A01C00EB800061
:104FF00003EB8000037CDB0702D18089024403E0DD
:105000000089ABEB000B00BFBEF1000F38D0D8F821
:105010000C90002300264FF0000C0CE009EB03007D
:105020008189ABEB050B521A05810136764503F1F8
:105030001403BFF459AF09EB0304207CC507F4D176
:1050400015041BD015B20FFA8BFA9AFBF5F5E1683F
:10505000B4F904706943B4F9065009B2A942B8BF63
:105060000D46BD42B8BF3D468D42D7D040F001004D
:105070002074D8E9039E4FF0010CCFE7FEE700BF94
:10508000DDF828B00021584616221DF0CDFCDDF8D1
:105090002CA0D8F808109AF800600AB2F71E334620
:1050A000032F38BF0223022AA8BF3346013B042B3B
:1050B000044615D8B8F802000FF2080707EB83077B
:1050C000BF4600BF00F008B800F00EB800F014B8FA
:1050D00000F01EB800F028B81A9900260F1A2FE029
:1050E000099D002600272CE01A9900B2081A00EB4F
:1050F000D0704710002623E01A9A101A4FF480321D
:1051000002EB014100B2091490FBF1F73E4617E0B3
:105110001A99081A00B290FBF2F6B0B206EBD03042
:1051200000B247100CE000BF1A9A0027101A0022A4
:10513000CFF6FF7202EB014100B2091490FBF1F6C9
:10514000099D9AF803000594C00709D0E0B2DDF884
:105150003090012806D158461CF05AFD074401E062
:10516000DDF83090584629461CF0D0FC002818BFC6
:105170004D4503D10FB0BDE8F08F00BF04461B982A
:1051800030440126C0F20606099000BF2046314691
:105190001DF064FE60B19AF80300400700F15481ED
:1051A000DBF80800013541688D42C0F25381E1E728
:1051B00040F2E420C2F200000288204600211DF0E7
:1051C00033FC000626D0D8F8101049B3D8F80C00EC
:1051D000BC464A4200F13C03032153F83C7CA74201
:1051E00020D05718022F13D053F8286CA6421BD09A
:1051F000012F0DD053F8146CA64217D047B11F6889
:10520000A74214D004315718032F03F15003E4D1FF
:10521000002011E0608C20F4C06060843DE000BF9D
:1052200000200AE0033902E0023900E0013901EB15
:10523000810100EB8100008967460C909AF8030019
:10524000618CC0074FF4806008BF4FF400700843C2
:105250000899608404F11400064688470C9980B2CE
:1052600081421AD020461EF013F96069A169069A9E
:10527000CDE90D010C9801B2304690472046292116
:105280000DAA14F057FE20461CF0CCFD2221224628
:1052900014F050FE20461EF0FBF89AF80100012899
:1052A00010D0022816D1B8F900000799013020F07B
:1052B000010604F114008847301A00EBD07040104A
:1052C00009E000BF0799B8F8006004F114008847AE
:1052D000301A00E0002004909AF80300C00708D0BC
:1052E0000598C0B2012804D1089904F11400884738
:1052F0003F1A204600216A220C971DF095FB0646B6
:10530000204600216B221DF08FFB074620461DF032
:105310002BFD039020461CF0FFFC06F4C041B1F5C4
:10532000005F17D131B2039A21F4C041B1F5FA6F91
:10533000BE4610DCB1F57A7FC8BFC1F57A71514322
:1053400048F21F52C5F2EB1281FB0212511101EB20
:10535000D27600E0BE460EF4C041B1F5005F039680
:1053600015D10FFA8EF121F4C041B1F5FA6F0EDCC0
:10537000B1F57A7FC8BFC1F57A71484348F21F5131
:10538000C5F2EB1180FB0101481100EBD17E2046F4
:1053900030F8142F0C9B9AF80310019040881F4698
:1053A0000290009111F00100049908BF0F46189E69
:1053B000DDF80CC000286644A6EB02021744199AD7
:1053C00008BF1946029B7244D21A561847EA0602D1
:1053D00012041FD020461EF05BF8A08A218B3844AF
:1053E000A082C819E18A20838819618BE08288191C
:1053F000608320461EF04CF839B232B220460023BA
:105400001EF0F0F89AF803100C9F012601F001003D
:1054100003E000BF0C9F01260099C0F2060638B1D8
:105420000598C0B2012803D109983F1A08E000BFCF
:105430000198089988470999CA199AF8031017180A
:1054400048077FF5ADAE00BF012DFFF693AEDBF848
:105450000800013D006850F82540002C3FF48AAE5A
:105460004D457FF493AE85E610B5022A3BD9C1F3D2
:10547000C42CC0F3C423634400F01F0EC1F34514D1
:10548000C0F345104FF01F0C1F2B28BF634620446C
:10549000DB023F2828BF3F2060F34A1301F01F00C2
:1054A00070441F2838BF8446FF2A43EA0C0008BF17
:1054B00010BD4FF61F0301EA030401F4FC6144EA46
:1054C00001410340043200F4FC605B1AD20803EB94
:1054D0000040504301EB50104FF61F01C0F2E07145
:1054E000084040EA1041084610BD0000022A3AD99F
:1054F00080B5C0F3C42CC1F3C42303FB0CFC00F043
:105500001F0E01F01F0303FB0EFEC0F34510C1F395
:10551000451358436FF01F0303EA50002CF01F039C
:105520009B0143EA5E131844FF2ABDE8804008BF90
:1055300070474FF61F030B4001F4FC6143EA014141
:1055400020F4FC63043200F4FC605B1AD20803EB25
:105550000040504301EB50104FF61F01C0F2E071C4
:10556000084040EA1041084670470000022A3CD932
:1055700080B5C1F3C42CC0F3C423ACEB030300F02B
:105580001F0CC1F3451EC0F3451023EAE373AEEBD5
:105590000000DB0220EAE07060F34A1301F01F0014
:1055A000A0EB0C0020EAE0701843FF2ABDE8804021
:1055B00008BF70474FF61F0C01EA0C0301F4FC61B1
:1055C00043EA014100EA0C03043200F4FC605B1A78
:1055D000D20803EB0040504301EB50104FF61F017F
:1055E000C0F2E071084040EA1041084670470000F0
:1055F00070B582B0044614F099FC0546204614F0BC
:105600007DFC064628461CF00DFC0A2E044609D0F7
:105610002B2E48D1618D2046002202B0BDE870409B
:1056200023F034B901A928461CF084FC94F82C001E
:1056300010F00C0F18D028461CF0EAFA054686B286
:105640002046002116221DF0EFF905EBD632C1B23B
:10565000BDF9040012B201294FEA620114BF0844E7
:10566000081A90FBF5F00CE028461CF0B5FA81B260
:10567000BDF9062000EBD13109B202EB610191FBCB
:10568000F0F001B200250029668DC8BF85B2204622
:105690002946012223F0FAF8B54204D020461C2105
:1056A000002214F047FC02B070BD000010B582B0BB
:1056B00090F8502002F001038B4222D0002918BF3D
:1056C000012102F0FE021144426A80F85010B0F845
:1056D00044C0918AB0F848E001EB0C03ADF800300B
:1056E000D28AB0F84A30B0F846407144ADF80410A0
:1056F000D1181444ADF806106946ADF802401DF00B
:10570000EBFE02B010BD000088B211460AF0D4BB17
:105710002DE9F0410C46B1F90270B1F9061080464E
:105720008F4205DD4046BDE8F0410BF003BC00BFF1
:10573000A088164605E000BF0AB2974207F10107AC
:10574000F0DAB4F9005002B29542F5DC36F8022BDB
:10575000A8B2B9B2FBF71AFDB4F90400854205F10D
:105760000105F3DBE18880B2E6E700002DE9F04FA8
:105770009BB00E46C9780329C0F00082B6F92070AC
:105780000446138851889088D288022FADF864307F
:10579000ADF86610ADF86800ADF86A201BDB96F82E
:1057A0002270FD2F17D33788AFB196F82370C7F357
:1057B000C0052B44ADF86430C7F380031944ADF83D
:1057C0006610C7F30011401AADF86800C7F3400037
:1057D000101AADF86A00A26817A819A9FCF706FC10
:1057E000002800F0CB81F07B0621049410F0070024
:1057F00008BF0421775A718919AD7C1A18BF044675
:1058000028460CF057FE8246B0784FF00009CDE9EB
:1058100015998DF859003088BAF1000FCDE9139928
:10582000CDE91199CDF84090ADF8487008BF002837
:1058300000F06C81F27805B2BDF86400BDF8681024
:10584000FC2A88BF4FF0FF320392081ABDF8661099
:10585000BDF86A2006F10608511A013101300EB276
:1058600007B23046B742B8BF3846BDF85C10BDF845
:105870006020B5EB600F4FF00003A8BF4510501A31
:10588000002DC8BF0123013043EA0A03012B0FFAA0
:1058900080FB13D1584618F023FF81462AB20AA88C
:1058A00019A900230DF0A4FB0AA800210CF052FB5B
:1058B000BDF85C10BDF8602002E000BF4FF6FF703D
:1058C000029008A810901590FF20ADF82010ADF8B8
:1058D00024208DF85800404639463246CDF84C9089
:1058E00014F08CFF60B1E1B2022909D18368BDF9DF
:1058F0005C10BDF9642003EB4101A1EB4201119161
:10590000BAF1000F05903DD02146BDF95E40BDF9CA
:105910006200049D844200F31A810398CEB2C7B29C
:105920000DF140080BE000BF284641460EF028FD6F
:10593000BDF96200844204F1010480F20881484606
:1059400039465A46ADF82240ADF8264019F018FC09
:10595000BDF95C1022B248465B460CF057FD0128A9
:1059600008BF0220012E8DF85000DDD10598BDF949
:1059700066108068A0EB410030F81400ADF84800D4
:10598000D2E700BF012D01945EDB03984FF0000ABF
:10599000C7B20198C6B207E0049810A90EF0F0FC57
:1059A0000AF1010A55454FD0BDF86600BDF95E10F9
:1059B000504404B2BDF86A008C42A0EB0A000FFA12
:1059C00080F803DABDF962008045E9DC48463946D3
:1059D0005A4619F0D5FBBDF92010484622465B46D1
:1059E0000CF014FDBDF95E10012808BF02208C42A6
:1059F0008DF8500012DB012EADF82240ADF82640A4
:105A000008D10599BDF966008968201A31F810009F
:105A1000ADF84800049810A90EF0B2FCBDF9620080
:105A20008045BDDC012EADF82280ADF82680B3D1D3
:105A30000599BDF966008968A8EB000031F81000EF
:105A4000ADF84800A8E700BFBDF86400BDF86610D7
:105A5000ADF81800BDF86800ADF81C004819BDF895
:105A60006A10ADF81A00481BADF81E0006A80CF02D
:105A700021FD002804BF01995FEA016154D0BDF9FE
:105A80006A80BDF966A001218DF85010A8EB0506CB
:105A900005EB0A070399049CB7428DF8581056DCB1
:105AA00000286FD00198C0B2012840F09F80A8EB79
:105AB0000A00A0EB4500461C03980DF14008C5B252
:105AC000484629465A4619F05BFBBDF95C103AB2CC
:105AD00048465B460CF09AFC8DF850000598BDF9DD
